:10000000FBC0000015C1000013C1000011C10000B9
:100010000FC100000DC100000BC1000009C10000AC
:1000200007C1000005C1000003C10000C6C60000F2
:100030008AC60000FDC00000FBC00000F9C000003F
:10004000F7C00000F5C00000F3C00000F1C00000E0
:10005000EFC00000EDC00000EBC00000A5C1000033
:10006000E7C00000E5C00000E3C00000E1C0000000
:10007000DFC00000DDC00000DBC00000D9C0000010
:10008000D7C00000D5C00000D3C00000D1C0000020
:10009000CFC00000CDC00000120110010200000816
:1000A0004123100001000102DC01120110010000D7
:1000B0000008EB03482000000102000109023E0095
:1000C000020100C0320904000001020201000524FF
:1000D000000110042402060524060001070582031E
:1000E0000800FF09040100020A00000007050402DD
:1000F000400001070583024000010902650002017A
:1001000000C03209040000000101000009240100C0
:100110000109000101090401000201030000072494
:10012000010001410006240201010006240202022E
:100130000009240301030102010009240302040150
:100140000101000905010240000000000525010130
:100150000109058202400000000005250101030499
:100160000309043203410072006400750069006EE7
:10017000006F00200028007700770077002E0061D4
:100180000072006400750069006E006F002E00634D
:100190000063002900000024036B007500770061F4
:1001A0000074006100790040006E00690066007410
:1001B0000079002E0063006F006D000000240341F1
:1001C0000072006400750069006E006F0020004D31
:1001D0000065006700610020003200350036003005
:1001E00000000012034D006F0063006F004C0055CB
:1001F000004600410000000011241FBECFEFD2E0F6
:10020000DEBFCDBF11E0A0E0B1E0EEEBF5E102C052
:1002100005900D92A233B107D9F712E0A2E3B1E045
:1002200001C01D92A238B107E1F7FED20C94DD0A9D
:10023000E7CE9C01DC01AE57BF4FED91FC911197C9
:1002400041911196FC93EE9380589F4FE817F90760
:1002500011F42D933C939FB7F894F901EC57FF4F9D
:100260008081815080839FBF842F0895CF93DF9337
:10027000EC013091340198819F70923008F1DE01D9
:1002800021E0E32FF0E0E75BFE4F11968C91119790
:1002900080833F5F3F71213029F4953089F09F3092
:1002A00059F40EC0223041F4923051F0963041F0B2
:1002B0009C3031F09D3021F02F5F1196243009F7EA
:1002C000653018F024966450D6CF30933401DF9116
:1002D000CF91089508950895DF92EF92FF920F93C2
:1002E0001F93FC018489813019F0823021F405C00C
:1002F00040E3D42E04C0DD2402C030E2D32E838933
:10030000823011F488E0D82A8589873031F088302E
:1003100031F0863031F482E003C084E001C086E031
:10032000D82A1092C9001092C8001092CA00E7841F
:10033000F0880189128980E0E81681EEF80680E0F5
:10034000080780E0180719F420E130E010C0C80168
:10035000B701969587957795679560587B47814E4D
:100360009F4FA80197010E94BB0A21503040309353
:10037000CD002093CC00D092CA0080E0E81681EE38
:10038000F80680E0080780E0180711F082E001C05D
:1003900080E08093C80088E98093C9001F910F9185
:1003A000FF90EF90DF9008951F920F920FB60F927B
:1003B00011242F938F939F93EF93FF9380910001CC
:1003C000882319F59091CE008EB38430F1F4E0913A
:1003D000EC01F091ED019083E091EC01F091ED01E1
:1003E000CF0101969093ED018093EC018C5E9140DA
:1003F00021F48CE691E0928381839FB7F8948091F9
:10040000F0018F5F8093F0019FBFFF91EF919F916B
:100410008F912F910F900FBE0F901F901895FC0198
:10042000858580FF02C05F9808955F9A0895809146
:100430000001882319F481E091E0A8C70895809114
:100440000001813021F487E191E00C94870A81E07A
:1004500091E052C784B7877F84BF28E10FB6F89434
:1004600020936000109260000FBE82E084B98CE09F
:1004700085B91A9912C01092000187E690E0909316
:10048000CD008093CC0086E08093CA001092C80013
:100490002093C900539A5A9A12C081E080930001B8
:1004A0001B9905C0809332011092CC0003C08FE1EC
:1004B0008093CC0088E18093C9008EE085B984E008
:1004C00085BD36D48AB180638AB98BB180638BB91C
:1004D00080910001882311F45F9A579A08950F9331
:1004E0001F93CF93DF932FB7F89481EF91E0909310
:1004F00072028093710290937402809373022FBFF3
:100500002FB7F8948CE691E09093ED018093EC0185
:100510009093EF018093EE012FBF7894C1EFD1E06B
:1005200003E08FB7F894909175028FBF903809F16E
:1005300081E091E057D697FD1CC0E0917102F091E7
:1005400072028083E0917102F0917202CF010196F4
:1005500090937202809371028157924011F4D2837A
:10056000C1839FB7F894809175028F5F8093750265
:100570009FBF8FB7F8941091F0018FBFA89902C068
:10058000113678F1A89A8091F001882361F05D9886
:100590000093690108C08CE691E04BDE682F81E092
:1005A00091E086D611501123B1F78091690188231B
:1005B00051F08091690181508093690180916901B6
:1005C000882309F45D9A80916A01882351F0809113
:1005D0006A01815080936A0180916A01882309F43D
:1005E0005C9A8FB7F894909175028FBF992369F048
:1005F00081EF91E01EDE982F8091C80085FFFCCF2F
:100600009093CE005C9800936A0181E091E041D61E
:10061000D6D587CF382F80913701882331F180914B
:100620003601373F81F4E82FF0E0EF5BFE4F308377
:100630008F5F809336018D5F809341011092370167
:100640001092380165C0E82FF0E0EF5BFE4F308379
:10065000E82FEF5FE0933601E43009F05BC0E093F0
:10066000410181E0809336010895383F50F08FE0DA
:100670008093410130934201109243011092440152
:1006800047C037FF0DC0303F49F481E08093370108
:100690003093420182E08093360118C010923801F5
:1006A000E0913801EE23A1F4232F22952F70822FA1
:1006B00090E0877090700196880F991F80933801A1
:1006C0002093390130933A0110923C0180E0089563
:1006D000F0E0DF01AF5DBE4F9C91E170F070E75C30
:1006E000FE4F3283892F8F708093380197FF12C09D
:1006F0008091390190913A01A0913B01B0913C0168
:100700008093410190934201A0934301B09344012F
:1007100081E0089580E00895CF92DF92EF92FF92FA
:100720000F931F93DF93CF9300D000D0CDB7DEB7E8
:10073000789403E07E010894E11CF11C78E2C72E56
:1007400062E0D62E8091C80087FF0BC01091330164
:100750008091CE005FDF182B109333015D980093DA
:10076000690180913301882389F087E191E061E498
:1007700071E0AAD687E191E093D61092330106C0CA
:10078000C70164E073DD5C9800936A0187E191E042
:10079000B70168D68823A1F78091C80085FF11C0F2
:1007A0009091350180913401891759F0E92FF0E0DB
:1007B000E75BFE4F80818093CE009F5F9F71909397
:1007C0003501A89B1DC0A89A80916901882351F02A
:1007D000809169018150809369018091690188232A
:1007E00009F45D9A80916A01882351F080916A0131
:1007F000815080936A0180916A01882309F45C9A90
:10080000DED480913201813009F09CCF80912001AB
:10081000815080932001882309F094CFC092200159
:1008200085B18D2585B98ECF15DE8091000181308F
:1008300011F472DF01C053DE80E090E00895DA0128
:10084000923089F09330E9F0913009F03FC0809107
:100850000001813019F0E8E9F0E002C0EAEAF0E0D6
:1008600022E130E037C080910001813029F0ECEBCB
:10087000F0E02EE330E02EC0EAEFF0E025E630E0D5
:1008800029C0813049F0813018F08230F9F410C06D
:10089000EFE5F1E0849113C080910001813021F4F3
:1008A000E7E9F1E084910BC0E3E6F1E0849107C051
:1008B00080910001813031F4E3EEF1E08491282F42
:1008C00030E008C0EDEBF1E08491F9CFE0E0F0E03A
:1008D00020E030E0ED93FC93C901089528E030E07A
:1008E00040E003C04F5F220F331F28173907D0F3B2
:1008F000842F8295807F08958093E9008091EB009A
:1009000081608093EB001092ED006093EC004093C7
:10091000ED008091EE00881F8827881F08951092AF
:10092000F40090E09093E9001092F0001092E8003B
:100930001092ED008091EB008E7F8093EB009F5F23
:10094000953081F7089580917A0288238CF403C052
:100950008EB38823B1F08091E80082FFF9CF8091B7
:10096000E8008B778093E80008958EB3882349F0E0
:100970008091E80080FFF9CF8091E8008E77809326
:10098000E800089594E68091EC0080FF05C0809116
:10099000E80080FF05C023C08091E80082FD1FC0F1
:1009A0008EB3882311F482E008958EB3853011F45C
:1009B00083E008958091EB0085FF02C081E00895F7
:1009C0008091E10082FFDFCF8091E1008B7F8093F7
:1009D000E100992311F484E008959150D4CF80E090
:1009E0000895DF92EF92FF920F931F93CF93DF93BF
:1009F000182F092FEB017A01C5DFD82E882319F5AE
:100A0000812F902F9C0189011CC08091E80085FDF9
:100A100012C08091E8008E778093E800E114F10421
:100A200031F0F7010995813011F485E00DC0AADF9E
:100A3000882339F009C0F80181918F018093F1007A
:100A40002197209711F78D2DDF91CF911F910F9155
:100A5000FF90EF90DF900895DF92EF92FF920F9357
:100A60001F93CF93DF93182F092FEB017A018ADFB1
:100A7000D82E882319F5812F902F9C0189011CC045
:100A80008091E80085FD12C08091E8008B7780930B
:100A9000E800E114F10431F0F7010995813011F417
:100AA00085E00DC06FDF882339F009C08091F10027
:100AB000F80181938F012197209711F78D2DDF91F8
:100AC000CF911F910F91FF90EF90DF9008959C01BF
:100AD00040918002509181024617570718F4F9019E
:100AE00020E038C06115710511F0AB01F8CF80919D
:100AF000E8008E778093E80040E050E0F0CF8091EE
:100B0000E80083FF02C081E008958091E80082FD43
:100B10002DC08EB3882381F18EB3853079F1809119
:100B2000E80080FF17C09091F20006C08191809389
:100B3000F100415050409F5F4115510511F0983030
:100B4000A8F320E0983009F421E08091E8008E7746
:100B50008093E8004115510591F6222381F606C0E5
:100B60008EB3882349F08EB3853041F08091E80040
:100B700082FFF6CF80E0089582E0089583E0089533
:100B80009C0140918002509181024617570710F452
:100B900090E03BC06115710511F0AB01F9CF809178
:100BA000E8008E778093E80040E050E0F1CF80913C
:100BB000E80083FF02C081E008958091E80082FD93
:100BC00030C08EB3882399F18EB3853091F1809136
:100BD000E80080FF1AC08091F20009C0F9012F5F80
:100BE0003F4FE491E093F100415050408F5F411539
:100BF000510511F0883090F390E0883009F491E0CD
:100C00008091E8008E778093E8004115510579F6D0
:100C1000992369F606C08EB3882349F08EB38530D8
:100C200041F08091E80082FFF6CF80E0089582E0F5
:100C3000089583E008959C016115710529F4809160
:100C4000E8008B778093E800F90120C08091E800EC
:100C500083FF02C081E008958EB3882339F18EB3FB
:100C6000853031F18091E80082FFF0CF06C080919D
:100C7000F10081936150704021F08091F20088234F
:100C8000B1F78091E8008B778093E80061157105DA
:100C9000E9F606C08EB3882349F08EB3853041F063
:100CA0008091E80080FFF6CF80E0089582E008950B
:100CB00083E0089542D044D01EBA10927802109278
:100CC00077021092760284E089BD89B5826089BD81
:100CD00009B400FEFDCF8091D800982F9F779093A4
:100CE000D80080688093D800809163008E7F8093C5
:100CF00063008091D8008F7D8093D8008091E000C0
:100D00008E7F8093E0008091E1008E7F8093E100F0
:100D10008091E20081608093E2008091E100877F12
:100D20008093E1008091E20088608093E200089562
:100D3000C1DF81E08093790208951092E200089566
:100D40001092E10008951F920F920FB60F92112496
:100D50001F932F933F934F935F936F937F938F9343
:100D60009F93AF93BF93EF93FF93E9EEF0E0108171
:100D700017701082E0EFF0E08081877F80837894A5
:100D8000C3D0F894A9EEB0E01C92E0EFF0E08081CF
:100D9000886080831C93FF91EF91BF91AF919F91E9
:100DA0008F917F916F915F914F913F912F911F9103
:100DB0000F900FBE0F901F9018951F920F920FB6B5
:100DC0000F9211242F933F934F935F936F937F93D1
:100DD0008F939F93AF93BF93EF93FF938091E10025
:100DE00080FF1BC08091E20080FF17C08091E1006E
:100DF0008E7F8093E1008091E2008E7F8093E200FD
:100E00008091E20080618093E2008091D80080624E
:100E10008093D80019BC1EBA5EDA8091E10084FF8D
:100E200029C08091E20084FF25C084E089BD89B596
:100E3000826089BD09B400FEFDCF8091D8008F7D0E
:100E40008093D8008091E1008F7E8093E1008091B3
:100E5000E2008F7E8093E2008091E20081608093C7
:100E6000E20080917802882311F481E001C084E0DF
:100E70008EBB30DA8091E10083FF27C08091E200D1
:100E800083FF23C08091E100877F8093E10082E0AF
:100E90008EBB109278028091E1008E7F8093E100FA
:100EA0008091E2008E7F8093E2008091E200806179
:100EB0008093E20034DD80E060E042E01DDD80915F
:100EC000F00088608093F00079D18091E10082FF8A
:100ED0000AC08091E20082FF06C08091E1008B7F12
:100EE0008093E1006BD1FF91EF91BF91AF919F9102
:100EF0008F917F916F915F914F913F912F910F90C3
:100F00000FBE0F901F9018951F93DF93CF93CDB70F
:100F1000DEB7AC970FB6F894DEBF0FBECDBFEAE7E1
:100F2000F2E08091F100819322E0E238F207C9F704
:100F300080917A0230917B02353009F487C03630D7
:100F400040F43130C9F1313070F0333009F01DC157
:100F500033C0383009F4EFC0393009F4FEC0363000
:100F600009F013C192C0803821F0823809F00DC118
:100F700008C09091760280917702882399F0926060
:100F800011C080917E0287708093E9008091EB0010
:100F900090E025E0969587952A95E1F7982F917036
:100FA0001092E9008091E800877F8093E800909399
:100FB000F1001092F100CAC0882319F0823009F0C4
:100FC000E4C090E08F719070009721F0029709F0D3
:100FD000DDC00CC080917C02813009F0D7C0109236
:100FE0007702333069F5809377022AC080917C02C2
:100FF000882331F520917E02277009F4C7C0209321
:10100000E9008091EB0080FFC1C0333021F4809172
:10101000EB00806213C08091EB0080618093EB0055
:1010200081E090E002C0880F991F2A95E2F7809333
:10103000EA001092EA008091EB0088608093EB0058
:101040001092E9008091E800877F83C0882309F02F
:101050009CC010917C028091E800877F8093E8001B
:1010600072DC04C08EB3882309F490C08091E8003C
:1010700080FFF8CF812F8F7711F492E001C093E0C9
:101080009EBB80688093E30081C08058823008F066
:101090007CC080917C0290917D0223E08C3D920780
:1010A00099F55FB7F894DE0115964EE020E030E048
:1010B00061E2E42FF0E060935700849120FF03C0C9
:1010C00082958F704F5F982F9F70892F805D8A3334
:1010D00008F0895F8C9311961C9211972F5F3F4FF8
:1010E00012962431310529F75FBF8AE28B8383E0B2
:1010F0008C838091E800877F8093E800CE0103967F
:101100006AE270E0E4DC11C060917E02AE014F5FE4
:101110005F4F95DBBC010097C9F18091E800877FA4
:101120008093E80089819A812BDD8091E8008B779C
:101130008093E8002BC0803841F58091E800877FDC
:101140008093E800809178028093F1008091E8001C
:101150008E778093E800F7DB19C08823B1F4909173
:101160007C02923098F48091E800877F8093E800B9
:1011700090937802E8DB80917802882311F483E071
:1011800001C084E08EBB5BD901C051D98091E800D9
:1011900083FF0AC08091EB0080628093EB00809116
:1011A000E800877F8093E800AC960FB6F894DEBF26
:1011B0000FBECDBFCF91DF911F91089508951F936A
:1011C0008EB3882361F01091E9001092E9008091BC
:1011D000E80083FF01C098DE17701093E9001F91AB
:1011E00008950895FC018EB3843021F58785908998
:1011F000A189B2890097A105B105E1F085818093AD
:10120000E9008091E80082FF15C08091F2008823F8
:1012100019F42FEF3FEF04C08091F100282F30E048
:101220008091F200882341F48091E8008B778093CD
:10123000E80002C02FEF3FEFC9010895FC018EB313
:10124000843011F587859089A189B2890097A1051D
:10125000B105D1F081818093E9008091F20088236B
:10126000A9F09091E8008091E8008E778093E800E3
:1012700095FD0CC087DB982F882349F48091E80006
:101280008E778093E80003C092E001C090E0892F40
:101290000895FC018EB3843051F487859089A1892B
:1012A000B2890097A105B10511F0CF01C7CF08950C
:1012B0001F93FC01162F8EB38430D9F48785908953
:1012C000A189B2890097A105B10599F08181809328
:1012D000E9008091E80085FD08C08091E8008E77E4
:1012E0008093E8004FDB882329F41093F10080E01D
:1012F00001C082E01F9108950F931F93CF93DF9356
:10130000EC010D96FC0189E0DF011D928A95E9F759
:101310002A813B8109818C81882311F410E001C06E
:1013200014E0C901DBDA182B1260802F61E8412F2D
:10133000E3DA882329F12E813F810D818885882376
:1013400011F410E001C014E0C901C8DA182B1260D2
:10135000802F60E8412FD0DA882391F02A853B85E1
:1013600009858C85882311F410E001C014E0C901BF
:10137000B5DA182B1260802F61EC412FBDDA01C065
:1013800080E0DF91CF911F910F910895CF93DF936C
:10139000EC018091E80083FF62C0888190E0209199
:1013A0007E0230917F022817390709F058C08091DA
:1013B0007B02813261F0823220F4803209F04FC02A
:1013C00019C0823271F1833209F049C03AC080916C
:1013D0007A02813A09F043C08091E800877F8093C8
:1013E000E800CE010F9667E070E071DB8091E800C5
:1013F0008B7714C080917A02813289F58091E80060
:10140000877F8093E800CE010F9667E070E013DCE1
:10141000CE010E946C018091E8008E778093E800F5
:101420001EC080917A028132D1F48091E800877FDA
:101430008093E80080917C028D87CE010E940F028C
:101440000DC080917A02813251F48091E800877F4B
:101450008093E800CE0160917C02C3DE74DADF91F4
:10146000CF910895FC018EB38430C1F485818093BF
:10147000E9008091E80085FF11C0CB0164E070E0D5
:1014800040E050E0E9DA8091E80085FD05C08091F8
:10149000E8008B778093E80081E0089580E008956C
:1014A000FC018EB3843011F082E008958181809335
:1014B000E9008091F200882331F08091E8008E7776
:1014C0008093E8005FCA0895FC018EB3843011F068
:1014D00092E01BC081818093E9008091E80085FD46
:1014E00002C090E012C0CB0164E070E040E050E048
:1014F00078DA982F882349F48091E80085FD05C0AB
:101500008091E8008E778093E800892F08950F93EB
:101510001F93CF93DF93EC010981002391F02A817F
:101520003B818C81882311F410E001C014E0C901D3
:10153000D5D9182B1260802F61E8412FDDD988237F
:10154000A9F00D81002389F02E813F8188858823B1
:1015500011F410E001C014E0C901C0D9182B1260C9
:10156000802F60E8412FC8D9811181E0DF91CF91B0
:101570001F910F910895A1E21A2EAA1BBB1BFD011A
:101580000DC0AA1FBB1FEE1FFF1FA217B307E40762
:10159000F50720F0A21BB30BE40BF50B661F771FBA
:1015A000881F991F1A9469F760957095809590959A
:0E15B0009B01AC01BD01CF010895F894FFCF5F
:1015BE00010003400000044000000208000000008B
:1015CE000000000000000001024000000140000089
:1015DE0028000003820584078609888A008C000F84
:0215EE008E006D
:00000001FF
